{
  "contractName": "Pixels",
  "abi": [
    {
      "anonymous": false,
      "inputs": [
        {
          "indexed": false,
          "internalType": "uint256",
          "name": "x",
          "type": "uint256"
        },
        {
          "indexed": false,
          "internalType": "uint256",
          "name": "y",
          "type": "uint256"
        },
        {
          "indexed": false,
          "internalType": "string",
          "name": "color",
          "type": "string"
        },
        {
          "indexed": false,
          "internalType": "address",
          "name": "owner",
          "type": "address"
        }
      ],
      "name": "Purchased",
      "type": "event"
    },
    {
      "anonymous": false,
      "inputs": [
        {
          "indexed": false,
          "internalType": "uint256",
          "name": "x",
          "type": "uint256"
        },
        {
          "indexed": false,
          "internalType": "uint256",
          "name": "y",
          "type": "uint256"
        },
        {
          "indexed": false,
          "internalType": "string",
          "name": "color",
          "type": "string"
        },
        {
          "indexed": false,
          "internalType": "address",
          "name": "owner",
          "type": "address"
        }
      ],
      "name": "Updated",
      "type": "event"
    },
    {
      "inputs": [
        {
          "internalType": "uint256",
          "name": "",
          "type": "uint256"
        },
        {
          "internalType": "uint256",
          "name": "",
          "type": "uint256"
        }
      ],
      "name": "pixelOwners",
      "outputs": [
        {
          "internalType": "address",
          "name": "",
          "type": "address"
        }
      ],
      "stateMutability": "view",
      "type": "function",
      "constant": true
    },
    {
      "inputs": [
        {
          "internalType": "uint256",
          "name": "",
          "type": "uint256"
        },
        {
          "internalType": "uint256",
          "name": "",
          "type": "uint256"
        }
      ],
      "name": "pixels",
      "outputs": [
        {
          "internalType": "string",
          "name": "",
          "type": "string"
        }
      ],
      "stateMutability": "view",
      "type": "function",
      "constant": true
    },
    {
      "inputs": [],
      "name": "getAllPixels",
      "outputs": [
        {
          "internalType": "string[10][10]",
          "name": "",
          "type": "string[10][10]"
        }
      ],
      "stateMutability": "view",
      "type": "function",
      "constant": true
    },
    {
      "inputs": [
        {
          "internalType": "uint256",
          "name": "x",
          "type": "uint256"
        },
        {
          "internalType": "uint256",
          "name": "y",
          "type": "uint256"
        },
        {
          "internalType": "string",
          "name": "color",
          "type": "string"
        }
      ],
      "name": "setPixel",
      "outputs": [],
      "stateMutability": "payable",
      "type": "function",
      "payable": true
    },
    {
      "inputs": [
        {
          "internalType": "uint256",
          "name": "x",
          "type": "uint256"
        },
        {
          "internalType": "uint256",
          "name": "y",
          "type": "uint256"
        },
        {
          "internalType": "string",
          "name": "color",
          "type": "string"
        }
      ],
      "name": "updatePixel",
      "outputs": [],
      "stateMutability": "nonpayable",
      "type": "function"
    }
  ],
  "bytecode": "0x608060405234801561001057600080fd5b50611004806100206000396000f3fe60806040526004361061004a5760003560e01c80630631fac91461004f5780634f2b230c1461006b5780635b8a2a70146100a857806369d640fd146100d157806370d72d631461010e575b600080fd5b61006960048036038101906100649190610992565b610139565b005b34801561007757600080fd5b50610092600480360381019061008d9190610956565b610407565b60405161009f9190610c04565b60405180910390f35b3480156100b457600080fd5b506100cf60048036038101906100ca9190610992565b610452565b005b3480156100dd57600080fd5b506100f860048036038101906100f39190610956565b610625565b6040516101059190610c41565b60405180910390f35b34801561011a57600080fd5b506101236106db565b6040516101309190610c1f565b60405180910390f35b600073ffffffffffffffffffffffffffffffffffffffff16606484600a811061018b577f4e487b7100000000000000000000000000000000000000000000000000000000600052603260045260246000fd5b600a020183600a81106101c7577f4e487b7100000000000000000000000000000000000000000000000000000000600052603260045260246000fd5b0160009054906101000a900473ffffffffffffffffffffffffffffffffffffffff1673ffffffffffffffffffffffffffffffffffffffff161461023f576040517f08c379a000000000000000000000000000000000000000000000000000000000815260040161023690610c83565b60405180910390fd5b6001341015610283576040517f08c379a000000000000000000000000000000000000000000000000000000000815260040161027a90610c63565b60405180910390fd5b33606484600a81106102be577f4e487b7100000000000000000000000000000000000000000000000000000000600052603260045260246000fd5b600a020183600a81106102fa577f4e487b7100000000000000000000000000000000000000000000000000000000600052603260045260246000fd5b0160006101000a81548173ffffffffffffffffffffffffffffffffffffffff021916908373ffffffffffffffffffffffffffffffffffffffff16021790555080600084600a8110610374577f4e487b7100000000000000000000000000000000000000000000000000000000600052603260045260246000fd5b600a020183600a81106103b0577f4e487b7100000000000000000000000000000000000000000000000000000000600052603260045260246000fd5b0190805190602001906103c49291906107e0565b507f843085f49dcbc14ee49c4b22cfdc7d8d172a7b769e7392bd9f3919ba0760b788838383336040516103fa9493929190610cc3565b60405180910390a1505050565b606482600a811061041757600080fd5b600a020181600a811061042957600080fd5b016000915091509054906101000a900473ffffffffffffffffffffffffffffffffffffffff1681565b3373ffffffffffffffffffffffffffffffffffffffff16606484600a81106104a3577f4e487b7100000000000000000000000000000000000000000000000000000000600052603260045260246000fd5b600a020183600a81106104df577f4e487b7100000000000000000000000000000000000000000000000000000000600052603260045260246000fd5b0160009054906101000a900473ffffffffffffffffffffffffffffffffffffffff1673ffffffffffffffffffffffffffffffffffffffff1614610557576040517f08c379a000000000000000000000000000000000000000000000000000000000815260040161054e90610ca3565b60405180910390fd5b80600084600a8110610592577f4e487b7100000000000000000000000000000000000000000000000000000000600052603260045260246000fd5b600a020183600a81106105ce577f4e487b7100000000000000000000000000000000000000000000000000000000600052603260045260246000fd5b0190805190602001906105e29291906107e0565b507fea4884e1b0b41806df50ed53fb919ce4d0dddbd64abcdf4ff243f585cd323569838383336040516106189493929190610cc3565b60405180910390a1505050565b600082600a811061063557600080fd5b600a020181600a811061064757600080fd5b0160009150915050805461065a90610e6a565b80601f016020809104026020016040519081016040528092919081815260200182805461068690610e6a565b80156106d35780601f106106a8576101008083540402835291602001916106d3565b820191906000526020600020905b8154815290600101906020018083116106b657829003601f168201915b505050505081565b6106e3610866565b6000600a80602002604051908101604052809291906000905b828210156107d7578382600a0201600a80602002604051908101604052809291906000905b828210156107c457838201805461073790610e6a565b80601f016020809104026020016040519081016040528092919081815260200182805461076390610e6a565b80156107b05780601f10610785576101008083540402835291602001916107b0565b820191906000526020600020905b81548152906001019060200180831161079357829003601f168201915b505050505081526020019060010190610721565b50505050815260200190600101906106fc565b50505050905090565b8280546107ec90610e6a565b90600052602060002090601f01602090048101928261080e5760008555610855565b82601f1061082757805160ff1916838001178555610855565b82800160010185558215610855579182015b82811115610854578251825591602001919060010190610839565b5b5090506108629190610894565b5090565b604051806101400160405280600a905b61087e6108b1565b8152602001906001900390816108765790505090565b5b808211156108ad576000816000905550600101610895565b5090565b604051806101400160405280600a905b60608152602001906001900390816108c15790505090565b60006108ec6108e784610d34565b610d0f565b90508281526020810184848401111561090457600080fd5b61090f848285610e28565b509392505050565b600082601f83011261092857600080fd5b81356109388482602086016108d9565b91505092915050565b60008135905061095081610fb7565b92915050565b6000806040838503121561096957600080fd5b600061097785828601610941565b925050602061098885828601610941565b9150509250929050565b6000806000606084860312156109a757600080fd5b60006109b586828701610941565b93505060206109c686828701610941565b925050604084013567ffffffffffffffff8111156109e357600080fd5b6109ef86828701610917565b9150509250925092565b6000610a058383610aa5565b905092915050565b6000610a198383610b1a565b905092915050565b610a2a81610dec565b82525050565b6000610a3b82610d79565b610a458185610db4565b935083602082028501610a5785610d65565b8060005b85811015610a935784840389528151610a7485826109f9565b9450610a7f83610d9a565b925060208a01995050600181019050610a5b565b50829750879550505050505092915050565b6000610ab082610d84565b610aba8185610dbf565b935083602082028501610acc85610d6f565b8060005b85811015610b085784840389528151610ae98582610a0d565b9450610af483610da7565b925060208a01995050600181019050610ad0565b50829750879550505050505092915050565b6000610b2582610d8f565b610b2f8185610dca565b9350610b3f818560208601610e37565b610b4881610f2b565b840191505092915050565b6000610b5e82610d8f565b610b688185610ddb565b9350610b78818560208601610e37565b610b8181610f2b565b840191505092915050565b6000610b99601f83610ddb565b9150610ba482610f3c565b602082019050919050565b6000610bbc601383610ddb565b9150610bc782610f65565b602082019050919050565b6000610bdf601b83610ddb565b9150610bea82610f8e565b602082019050919050565b610bfe81610e1e565b82525050565b6000602082019050610c196000830184610a21565b92915050565b60006020820190508181036000830152610c398184610a30565b905092915050565b60006020820190508181036000830152610c5b8184610b53565b905092915050565b60006020820190508181036000830152610c7c81610b8c565b9050919050565b60006020820190508181036000830152610c9c81610baf565b9050919050565b60006020820190508181036000830152610cbc81610bd2565b9050919050565b6000608082019050610cd86000830187610bf5565b610ce56020830186610bf5565b8181036040830152610cf78185610b53565b9050610d066060830184610a21565b95945050505050565b6000610d19610d2a565b9050610d258282610e9c565b919050565b6000604051905090565b600067ffffffffffffffff821115610d4f57610d4e610efc565b5b610d5882610f2b565b9050602081019050919050565b6000819050919050565b6000819050919050565b6000600a9050919050565b6000600a9050919050565b600081519050919050565b6000602082019050919050565b6000602082019050919050565b600081905092915050565b600081905092915050565b600082825260208201905092915050565b600082825260208201905092915050565b6000610df782610dfe565b9050919050565b600073ffffffffffffffffffffffffffffffffffffffff82169050919050565b6000819050919050565b82818337600083830152505050565b60005b83811015610e55578082015181840152602081019050610e3a565b83811115610e64576000848401525b50505050565b60006002820490506001821680610e8257607f821691505b60208210811415610e9657610e95610ecd565b5b50919050565b610ea582610f2b565b810181811067ffffffffffffffff82111715610ec457610ec3610efc565b5b80604052505050565b7f4e487b7100000000000000000000000000000000000000000000000000000000600052602260045260246000fd5b7f4e487b7100000000000000000000000000000000000000000000000000000000600052604160045260246000fd5b6000601f19601f8301169050919050565b7f416d6f756e742073686f756c6420626520657175616c20746f20312077656900600082015250565b7f506978656c20616c7265616479206f776e656400000000000000000000000000600082015250565b7f506978656c206f776e6564206279206f74686572206164726573730000000000600082015250565b610fc081610e1e565b8114610fcb57600080fd5b5056fea264697066735822122031415d5a9a3597b30c2aedb070cf31e1f7c11eece8a065aab2c2950796c985e864736f6c63430008040033",
  "immutableReferences": {},
  "source": "pragma solidity ^0.8.4;\n\ncontract Pixels {\n\n    string[10][10] public pixels;\n    address[10][10] public pixelOwners;\n\n    event Purchased(uint x, uint y, string color, address owner);\n    event Updated(uint x, uint y, string color, address owner);\n\n    function getAllPixels() public view returns(string[10][10] memory) {\n        return pixels;\n    }\n\n    function setPixel(uint x, uint y, string memory color) public payable {\n        require(pixelOwners[x][y] == address(0), \"Pixel already owned\");\n        require(msg.value >= 1 wei, \"Amount should be equal to 1 wei\");\n        pixelOwners[x][y] = msg.sender;\n        pixels[x][y] = color;\n        emit Purchased(x, y, color, msg.sender);\n    }\n\n    function updatePixel(uint x, uint y, string memory color) public {\n        require(pixelOwners[x][y] == msg.sender, \"Pixel owned by other adress\");\n        pixels[x][y] = color;\n        emit Updated(x, y, color, msg.sender);\n    }\n\n}",
  "sourcePath": "/Users/dpfactory/blockchain/pixelchain/contracts/Pixels.sol",
  "compiler": {
    "name": "solc",
    "version": "0.8.4+commit.c7e474f2.Emscripten.clang"
  },
  "schemaVersion": "3.4.3",
  "updatedAt": "2021-10-22T19:08:03.872Z",
  "networkType": "ethereum",
  "devdoc": {
    "kind": "dev",
    "methods": {},
    "version": 1
  },
  "userdoc": {
    "kind": "user",
    "methods": {},
    "version": 1
  }
}